{
  "contractName": "MultiSignatureWallet",
  "abi": [
    {
      "constant": true,
      "inputs": [],
      "name": "transactionCount",
      "outputs": [
        {
          "name": "",
          "type": "uint256"
        }
      ],
      "payable": false,
      "stateMutability": "view",
      "type": "function"
    },
    {
      "constant": true,
      "inputs": [],
      "name": "required",
      "outputs": [
        {
          "name": "",
          "type": "uint256"
        }
      ],
      "payable": false,
      "stateMutability": "view",
      "type": "function"
    },
    {
      "inputs": [
        {
          "name": "_owners",
          "type": "address[]"
        },
        {
          "name": "_required",
          "type": "uint256"
        }
      ],
      "payable": false,
      "stateMutability": "nonpayable",
      "type": "constructor"
    },
    {
      "payable": true,
      "stateMutability": "payable",
      "type": "fallback"
    },
    {
      "anonymous": false,
      "inputs": [
        {
          "indexed": true,
          "name": "transactionId",
          "type": "uint256"
        }
      ],
      "name": "Submission",
      "type": "event"
    },
    {
      "anonymous": false,
      "inputs": [
        {
          "indexed": true,
          "name": "transactionId",
          "type": "uint256"
        },
        {
          "indexed": true,
          "name": "sender",
          "type": "address"
        }
      ],
      "name": "Confirmation",
      "type": "event"
    },
    {
      "anonymous": false,
      "inputs": [
        {
          "indexed": true,
          "name": "transactionId",
          "type": "uint256"
        }
      ],
      "name": "Execution",
      "type": "event"
    },
    {
      "anonymous": false,
      "inputs": [
        {
          "indexed": true,
          "name": "transactionId",
          "type": "uint256"
        }
      ],
      "name": "ExecutionFailure",
      "type": "event"
    },
    {
      "constant": true,
      "inputs": [],
      "name": "getOwners",
      "outputs": [
        {
          "name": "",
          "type": "address[]"
        }
      ],
      "payable": false,
      "stateMutability": "view",
      "type": "function"
    },
    {
      "constant": false,
      "inputs": [
        {
          "name": "_destination",
          "type": "address"
        },
        {
          "name": "_value",
          "type": "uint256"
        },
        {
          "name": "_data",
          "type": "bytes"
        }
      ],
      "name": "submitTransaction",
      "outputs": [
        {
          "name": "transactionId",
          "type": "uint256"
        }
      ],
      "payable": false,
      "stateMutability": "nonpayable",
      "type": "function"
    },
    {
      "constant": false,
      "inputs": [
        {
          "name": "_transactionId",
          "type": "uint256"
        }
      ],
      "name": "confirmTransaction",
      "outputs": [],
      "payable": false,
      "stateMutability": "nonpayable",
      "type": "function"
    },
    {
      "constant": false,
      "inputs": [
        {
          "name": "transactionId",
          "type": "uint256"
        }
      ],
      "name": "revokeConfirmation",
      "outputs": [],
      "payable": false,
      "stateMutability": "nonpayable",
      "type": "function"
    },
    {
      "constant": false,
      "inputs": [
        {
          "name": "_transactionId",
          "type": "uint256"
        }
      ],
      "name": "executeTransaction",
      "outputs": [],
      "payable": false,
      "stateMutability": "nonpayable",
      "type": "function"
    }
  ],
  "bytecode": "0x60806040523480156200001157600080fd5b5060405162000e1438038062000e14833981018060405260408110156200003757600080fd5b8101908080516401000000008111156200005057600080fd5b828101905060208101848111156200006757600080fd5b81518560208202830111640100000000821117156200008557600080fd5b5050929190602001805190602001909291905050508151816000821480620000ad5750600081145b80620000b857508181115b1562000110576040517f08c379a000000000000000000000000000000000000000000000000000000000815260040180806020018281038252602981526020018062000deb6029913960400191505060405180910390fd5b836000908051906020019062000128929190620001c5565b508260018190555060008090505b8451811015620001ba576001600360008784815181106200015357fe5b602002602001015173ffffffffffffffffffffffffffffffffffffffff1673ffffffffffffffffffffffffffffffffffffffff16815260200190815260200160002060006101000a81548160ff021916908315150217905550808060010191505062000136565b50505050506200029a565b82805482825590600052602060002090810192821562000241579160200282015b82811115620002405782518260006101000a81548173ffffffffffffffffffffffffffffffffffffffff021916908373ffffffffffffffffffffffffffffffffffffffff16021790555091602001919060010190620001e6565b5b50905062000250919062000254565b5090565b6200029791905b808211156200029357600081816101000a81549073ffffffffffffffffffffffffffffffffffffffff0219169055506001016200025b565b5090565b90565b610b4180620002aa6000396000f3fe6080604052600436106100705760003560e01c8063c01a8c841161004e578063c01a8c8414610144578063c64274741461017f578063dc8452cd14610285578063ee22610b146102b057610070565b806320ea8d8614610072578063a0e67e2b146100ad578063b77bf60014610119575b005b34801561007e57600080fd5b506100ab6004803603602081101561009557600080fd5b81019080803590602001909291905050506102eb565b005b3480156100b957600080fd5b506100c26102ee565b6040518080602001828103825283818151815260200191508051906020019060200280838360005b838110156101055780820151818401526020810190506100ea565b505050509050019250505060405180910390f35b34801561012557600080fd5b5061012e61037c565b6040518082815260200191505060405180910390f35b34801561015057600080fd5b5061017d6004803603602081101561016757600080fd5b8101908080359060200190929190505050610382565b005b34801561018b57600080fd5b5061026f600480360360608110156101a257600080fd5b81019080803573ffffffffffffffffffffffffffffffffffffffff16906020019092919080359060200190929190803590602001906401000000008111156101e957600080fd5b8201836020820111156101fb57600080fd5b8035906020019184600183028401116401000000008311171561021d57600080fd5b91908080601f016020809104026020016040519081016040528093929190818152602001838380828437600081840152601f19601f82011690508083019250505050505050919291929050505061056f565b6040518082815260200191505060405180910390f35b34801561029157600080fd5b5061029a6105e4565b6040518082815260200191505060405180910390f35b3480156102bc57600080fd5b506102e9600480360360208110156102d357600080fd5b81019080803590602001909291905050506105ea565b005b50565b6060600080548060200260200160405190810160405280929190818152602001828054801561037257602002820191906000526020600020905b8160009054906101000a900473ffffffffffffffffffffffffffffffffffffffff1673ffffffffffffffffffffffffffffffffffffffff1681526020019060010190808311610328575b5050505050905090565b60025481565b600360003373ffffffffffffffffffffffffffffffffffffffff1673ffffffffffffffffffffffffffffffffffffffff16815260200190815260200160002060009054906101000a900460ff166103d857600080fd5b600073ffffffffffffffffffffffffffffffffffffffff166004600083815260200190815260200160002060000160019054906101000a900473ffffffffffffffffffffffffffffffffffffffff1673ffffffffffffffffffffffffffffffffffffffff16141561044857600080fd5b600015156005600083815260200190815260200160002060003373ffffffffffffffffffffffffffffffffffffffff1673ffffffffffffffffffffffffffffffffffffffff16815260200190815260200160002060009054906101000a900460ff161515146104b657600080fd5b60016005600083815260200190815260200160002060003373ffffffffffffffffffffffffffffffffffffffff1673ffffffffffffffffffffffffffffffffffffffff16815260200190815260200160002060006101000a81548160ff0219169083151502179055503373ffffffffffffffffffffffffffffffffffffffff16817f1f7db319f45151674bbce08ad4e1093bca1941bc7ef2f91ccafd6519406f010160405160405180910390a361056c816105ea565b50565b6000600360003373ffffffffffffffffffffffffffffffffffffffff1673ffffffffffffffffffffffffffffffffffffffff16815260200190815260200160002060009054906101000a900460ff166105c757600080fd5b6105d28484846107b8565b90506105dd81610382565b9392505050565b60015481565b600015156004600083815260200190815260200160002060000160009054906101000a900460ff1615151461061e57600080fd5b610627816108ed565b156107b557600060046000838152602001908152602001600020905060008160000160019054906101000a900473ffffffffffffffffffffffffffffffffffffffff1673ffffffffffffffffffffffffffffffffffffffff1682600101548360020160405180828054600181600116156101000203166002900480156106e45780601f106106c25761010080835404028352918201916106e4565b820191906000526020600020905b8154815290600101906020018083116106d0575b505091505060006040518083038185875af1925050503d8060008114610726576040519150601f19603f3d011682016040523d82523d6000602084013e61072b565b606091505b5050905080156107845760018260000160006101000a81548160ff021916908315150217905550827f33e13ecb54c3076d8e8bb8c2881800a4d972b792045ffae98fdf46df365fed7560405160405180910390a26107b2565b827f526441bb6c1aba3c9a4a6ca1d6545da9c2333c8c48343ef398eb858d72b7923660405160405180910390a25b50505b50565b6000600254905060405180608001604052806000151581526020018573ffffffffffffffffffffffffffffffffffffffff168152602001848152602001838152506004600083815260200190815260200160002060008201518160000160006101000a81548160ff02191690831515021790555060208201518160000160016101000a81548173ffffffffffffffffffffffffffffffffffffffff021916908373ffffffffffffffffffffffffffffffffffffffff160217905550604082015181600101556060820151816002019080519060200190610899929190610a70565b509050506108b360016002546109e890919063ffffffff16565b600281905550807fc0ba8fe4b176c1714197d43b9cc6bcf797a4a7461c5fe8d0ef6e184ae7601e5160405160405180910390a29392505050565b6000806000905060008090505b6000805490508110156109e0576001151560056000868152602001908152602001600020600080848154811061092c57fe5b9060005260206000200160009054906101000a900473ffffffffffffffffffffffffffffffffffffffff1673ffffffffffffffffffffffffffffffffffffffff1673ffffffffffffffffffffffffffffffffffffffff16815260200190815260200160002060009054906101000a900460ff16151514156109be576109bb6001836109e890919063ffffffff16565b91505b6001548214156109d3576001925050506109e3565b80806001019150506108fa565b50505b919050565b600080828401905083811015610a66576040517f08c379a000000000000000000000000000000000000000000000000000000000815260040180806020018281038252601b8152602001807f536166654d6174683a206164646974696f6e206f766572666c6f77000000000081525060200191505060405180910390fd5b8091505092915050565b828054600181600116156101000203166002900490600052602060002090601f016020900481019282601f10610ab157805160ff1916838001178555610adf565b82800160010185558215610adf579182015b82811115610ade578251825591602001919060010190610ac3565b5b509050610aec9190610af0565b5090565b610b1291905b80821115610b0e576000816000905550600101610af6565b5090565b9056fea165627a7a72305820aef9a20694f8bbb745c5c708a31d7e54ad8761bb5bb1d7a10ab8311e187b64810029496e76616c696420636f6e66696775726174696f6e20666f72204d756c74697369672057616c6c6574",
  "source": "pragma solidity ^0.5.0;\n\nimport \"@openzeppelin/contracts/math/SafeMath.sol\";\ncontract MultiSignatureWallet {\n    \n    using SafeMath for uint;\n    \n    address[] owners;\n    uint public required;\n    uint public transactionCount;\n    mapping (address => bool) isOwner;\n    mapping (uint => Transaction) transactions;\n    mapping (uint => mapping (address => bool)) confirmations;\n\n    struct Transaction {\n\t  bool executed;\n      address destination;\n      uint value;\n      bytes data;\n    }\n    \n    /// @dev Events are recommended for any changes to state variables\n    event Submission(uint indexed transactionId);\n    event Confirmation(uint indexed transactionId, address indexed sender);\n    event Execution(uint indexed transactionId);\n    event ExecutionFailure(uint indexed transactionId);\n\n    /// @dev Fallback function, which accepts ether when sent to contract\n    /// @dev This can be left empty as fallback functions do not accept any arguments. There may be data in the message accessible via msg.data. \n    ///      An event may be emitted for visibility when this does takes place. For more: https://tinyurl.com/y266xadx.\n    function() external payable {}\n    \n    /*\n    * Modifiers\n    */\n    /// @dev Ensure contract is initialized with valid multisignature specifics\n    /// @param _ownerCount Number of owners for a given instance of this wallet\n    /// @param _required Number of confirmations required before a transaction can be executed\n    modifier validRequirements(uint _ownerCount, uint _required) {\n        // Check to see that # of required signatures is not greater than # of owners\n        // Check to see that at least on account is in the owner's array\n        // Check to see that at least 1 required signature is needed for executing a transaction\n        if (_ownerCount == 0 || _required == 0 || _required > _ownerCount) {\n          revert('Invalid configuration for Multisig Wallet');\n        }\n        _;\n    }\n\n    /*\n     * Public functions\n     */\n    /// @dev Contract constructor sets initial owners and required number of confirmations.\n    /// @param _owners List of initial owners.\n    /// @param _required Number of required confirmations.\n    constructor(address[] memory _owners, uint _required) public validRequirements(_owners.length, _required) {\n        owners = _owners;\n        required = _required;\n        \n        for (uint i = 0; i < _owners.length; i++) {\n            isOwner[_owners[i]] = true;\n        }\n    }\n\n    function getOwners() public view returns (address[] memory) {\n        return owners;\n    }\n\n    /// @dev Allows an owner to submit and confirm a transaction.\n    /// @param _destination Transaction target address.\n    /// @param _value Transaction ether value.\n    /// @param _data Transaction data payload.\n    /// @return Returns transaction ID.\n    function submitTransaction(address _destination, uint _value, bytes memory _data) public returns (uint transactionId) {\n        require(isOwner[msg.sender]);\n        transactionId = addTransaction(_destination, _value, _data);\n        confirmTransaction(transactionId);\n    }\n\n    /// @dev Allows an owner to confirm a transaction.\n    /// @param _transactionId Transaction ID.\n    function confirmTransaction(uint _transactionId) public {\n        require(isOwner[msg.sender]);\n        require(transactions[_transactionId].destination != address(0));\n        // Owner hasn't already confirmed\n        require(confirmations[_transactionId][msg.sender] == false);\n        confirmations[_transactionId][msg.sender] = true;\n        emit Confirmation(_transactionId, msg.sender);\n        executeTransaction(_transactionId);\n    }\n\n    /// @dev Allows an owner to revoke a confirmation for a transaction.\n    /// @param transactionId Transaction ID.\n    function revokeConfirmation(uint transactionId) public {}\n\n    /// @dev Allows anyone to execute a confirmed transaction.\n    /// @param _transactionId Transaction ID.\n    function executeTransaction(uint _transactionId) public {\n        require(transactions[_transactionId].executed == false);\n        // Check to see if confirmation count is equal to or higher than required amount\n        if(isConfirmed(_transactionId)) {\n            Transaction storage t = transactions[_transactionId];\n            (bool success, ) = t.destination.call.value(t.value)(t.data);\n            if (success) {\n                t.executed = true;\n                emit Execution(_transactionId);\n            } else {\n                emit ExecutionFailure(_transactionId);\n            }\n        }\n    }\n\n\t\t/*\n\t\t * (Possible) Helper Functions\n\t\t */\n    /// @dev Returns the confirmation status of a transaction.\n    /// @param _transactionId Transaction ID.\n    /// @return Confirmation status.\n    function isConfirmed(uint _transactionId) internal view returns (bool) {\n        uint confirmationCount = 0;\n        for (uint i = 0; i < owners.length; i++) {\n            if (confirmations[_transactionId][owners[i]] == true) {\n                confirmationCount = confirmationCount.add(1);\n            }\n            if (confirmationCount == required) {\n                return true;\n            }\n        }\n    }\n\n    /// @dev Adds a new transaction to the transaction mapping, if transaction does not exist yet.\n    /// @param _destination Transaction target address.\n    /// @param _value Transaction ether value.\n    /// @param _data Transaction data payload.\n    /// @return Returns transaction ID.\n    function addTransaction(address _destination, uint _value, bytes memory _data) internal returns (uint transactionId) {\n        transactionId = transactionCount;\n        transactions[transactionId] = Transaction({ destination: _destination, value: _value, data: _data, executed: false });\n        transactionCount = transactionCount.add(1);\n        emit Submission(transactionId);\n    }\n}\n",
  "sourcePath": "/Users/andrewdeal/Projects/multisig-wallet-exercise/contracts/MultiSignatureWallet.sol",
  "compiler": {
    "name": "solc",
    "version": "0.5.8+commit.23d335f2.Emscripten.clang"
  },
  "schemaVersion": "3.0.16",
  "updatedAt": "2019-10-11T03:00:06.660Z",
  "devdoc": {
    "methods": {
      "confirmTransaction(uint256)": {
        "details": "Allows an owner to confirm a transaction.",
        "params": {
          "_transactionId": "Transaction ID."
        }
      },
      "constructor": {
        "details": "Contract constructor sets initial owners and required number of confirmations.",
        "params": {
          "_owners": "List of initial owners.",
          "_required": "Number of required confirmations."
        }
      },
      "executeTransaction(uint256)": {
        "details": "Allows anyone to execute a confirmed transaction.",
        "params": {
          "_transactionId": "Transaction ID."
        }
      },
      "revokeConfirmation(uint256)": {
        "details": "Allows an owner to revoke a confirmation for a transaction.",
        "params": {
          "transactionId": "Transaction ID."
        }
      },
      "submitTransaction(address,uint256,bytes)": {
        "details": "Allows an owner to submit and confirm a transaction.",
        "params": {
          "_data": "Transaction data payload.",
          "_destination": "Transaction target address.",
          "_value": "Transaction ether value."
        },
        "return": "Returns transaction ID."
      }
    }
  },
  "userdoc": {
    "methods": {}
  }
}